{
  "contractName": "Main",
  "abi": [
    {
      "inputs": [],
      "stateMutability": "nonpayable",
      "type": "constructor"
    },
    {
      "inputs": [
        {
          "internalType": "uint256",
          "name": "available",
          "type": "uint256"
        },
        {
          "internalType": "uint256",
          "name": "required",
          "type": "uint256"
        }
      ],
      "name": "InsufficientBalance",
      "type": "error"
    },
    {
      "anonymous": false,
      "inputs": [
        {
          "indexed": true,
          "internalType": "uint256",
          "name": "a",
          "type": "uint256"
        },
        {
          "indexed": false,
          "internalType": "bytes32",
          "name": "b",
          "type": "bytes32"
        }
      ],
      "name": "Event",
      "type": "event"
    },
    {
      "anonymous": false,
      "inputs": [
        {
          "indexed": true,
          "internalType": "uint256",
          "name": "a",
          "type": "uint256"
        },
        {
          "indexed": false,
          "internalType": "bytes32",
          "name": "b",
          "type": "bytes32"
        }
      ],
      "name": "Event2",
      "type": "event"
    },
    {
      "inputs": [
        {
          "internalType": "uint256",
          "name": "a",
          "type": "uint256"
        }
      ],
      "name": "foo",
      "outputs": [],
      "stateMutability": "nonpayable",
      "type": "function"
    }
  ],
  "bytecode": "0x608060405234801561001057600080fd5b5060d58061001f6000396000f3fe6080604052348015600f57600080fd5b506004361060285760003560e01c80632fbebd3814602d575b600080fd5b60436004803603810190603f9190605b565b6045565b005b50565b600081359050605581608b565b92915050565b600060208284031215606c57600080fd5b60006078848285016048565b91505092915050565b6000819050919050565b6092816081565b8114609c57600080fd5b5056fea26469706673582212204bc7425dfbaca1de17c699dc715a00c6ac050fcf38f236f450ebc4ec7916c2c464736f6c63430008040033",
  "immutableReferences": {},
  "source": "pragma solidity >=0.5.0;\n\ncontract Main {\n    constructor(){}\n  event Event(uint indexed a, bytes32 b);\n  event Event2(uint indexed a, bytes32 b);\n  error InsufficientBalance(uint256 available, uint256 required);\n  function foo(uint a) public{}\n}",
  "sourcePath": "/Users/zhangwenda/Conflux Studio/Test/contracts/Main.sol",
  "compiler": {
    "name": "solc",
    "version": "0.8.4+commit.c7e474f2.Emscripten.clang"
  },
  "schemaVersion": "3.3.4",
  "updatedAt": "2021-11-15T14:27:20.333Z",
  "devdoc": {
    "kind": "dev",
    "methods": {},
    "version": 1
  },
  "userdoc": {
    "kind": "user",
    "methods": {},
    "version": 1
  }
}